:020000041000EA
:1000000000B5324B212058609868022188439860DF
:10001000D860186158612E4B002199600221596106
:100020000121F02299502B49196001219960352056
:1000300000F044F80222904214D00621196600F024
:1000400034F8196E01211966002018661A6600F04E
:100050002CF8196E196E196E052000F02FF8012189
:100060000842F9D1002199601B49196000215960AB
:100070001A491B48016001219960EB211966A021F2
:10008000196600F012F800219960164914480160C1
:100090000121996001BC002800D000471248134993
:1000A000086003C880F30888084703B5996A0420EC
:1000B0000142FBD001200142F8D103BD02B5186610
:1000C0001866FFF7F2FF186E186E02BD00000240BE
:1000D000000000180000070000035F00212200005C
:1000E000F4000018222000A00001001008ED00E03C
:1000F00000000000000000000000000074B24E7A12
:1001000000200420F7010010C3010010C5010010F9
:10011000C1010010C1010010C1010010C101001097
:10012000C1010010C1010010C1010010C701001081
:10013000C1010010C1010010C9010010CB01001065
:10014000CD010010CD010010CD010010CD01001037
:10015000CD010010CD010010CD010010CD01001027
:10016000CD010010CD010010CD010010CD01001017
:10017000CD010010CD010010CD010010CD01001007
:10018000CD010010CD010010CD010010CD010010F7
:10019000CD010010CD010010CD010010CD010010E7
:1001A000CD010010CD010010CD010010CD010010D7
:1001B000CD010010CD010010CD010010CD010010C7
:1001C00000BE00BE00BE00BE00BE00BEEFF3058054
:1001D000103800BEF2EB8871909F0010BC9F001099
:1001E0003802001090A31AE71E481F49086006C88D
:1001F00081F3088810471D480068002801D019487D
:10020000F3E70DA40ECC002902D000F012F8F9E7B4
:100210001749184A002000E001C19142FCD116495B
:100220008847164988471649884700BEFDE701C937
:1002300001C29A42FBD37047BC9F0010C00000204F
:10024000B8120020B4B10010000004200000042007
:10025000B4B10010001004200010042000000000C1
:10026000704700000000000008ED00E0000000D032
:10027000B8120020F023002051670010D5040010B0
:1002800049670010F8B5C04606480749091A8B109F
:10029000C90FC91810B5491003D0044B002B00D06A
:1002A000984710BDB8120020B812002000000000CE
:1002B000054B10B5002B03D00449054800E000BFF2
:1002C000FFF7E2FF10BDC0460000000060230020E1
:1002D000EC970010F0B5CE46474680B587B068462B
:1002E00000F0A0FB002804D06B469B79002B00D0C7
:1002F000B9E06E4E02AC200000F054FF00281FD081
:10030000029D0021281C04F065FC00284AD16849A0
:10031000281C04F06DFC002800D1C1E0654B644846
:100320001860A379002B43D1002000F0B5FA607962
:10033000002800D0032000F01DFA002000F02EFB62
:1003400000F032FE03780400002B02D14378002B2A
:100350001ED0002000F0A0FA032000F00BFA0020CD
:1003600000F01CFB20786178A378E27849009B00BC
:100370000B433468D2000343134304A80494059349
:1003800000F01CFF012007B0C0BCB946B046F0BD6C
:100390008378002BDDD1C0780028DAD10022002339
:1003A0000021E3E70020434B1860A379002BBBD06A
:1003B0006379002BB8D1316804F0C3FB3E4F3F494D
:1003C000804604F0D8FBF96804F0BEFB3C49051CEC
:1003D00004F000FC002867D13A49281C04F008FC0E
:1003E000002800D0374D39694046FD6004F0A9FB74
:1003F000324904F0ACFB434681463B6140463968D4
:1004000004F0B9FB79688046281C04F0B4FB011C99
:10041000404604F099FBB968051C484604F0ABFB64
:10042000011C281C04F090FB214904F090FB0021E2
:10043000051C04F0CFFB002834D1FE21281C8905BF
:1004400004F0D6FB002801D0FE25AD05012000F008
:10045000A5FA2079431E9841013000F08BF9281C41
:1004600000F01AFA6CE703F0FBF8174F04003A6843
:100470007B680D00801A994104F020FC134904F0B8
:1004800066FB134B021C98461868009900F058FC54
:100490004246064E009B3C607D603060136029E759
:1004A000281C80E70025D1E7054D9CE7001F0020B0
:1004B00000803B46041F00208811002017B7D13868
:1004C00000409CC500409C4538140020002474491D
:1004D000FC1E0020F0B5DE4657464E464546E0B5C8
:1004E0008DB006F073FAC82002F022FF6D4806F0C6
:1004F000BFFA03F075FB002800D0CFE00121642093
:1005000003F0DCFA00F0E8F800F058FA00F0F0FC34
:1005100000F046FCFA20C821400000F053FC04F033
:10052000EBFB02000B00604806F026FB00F040FDEC
:1005300000F0ACFF03F094F85C4B1860596004A81D
:1005400000F070FA002802D0594B049A1A6002F0A9
:1005500079FD06AB0293002364220193554B52426E
:100560000093002302F0D8FF002503F079F8524CE5
:1005700024184D41002D02DA0124504D644203F04D
:100580006FF8002900D184E0FA220023920003F0E2
:10059000D5FC4B4B4B4E984618604B4B4B4F9946F6
:1005A00049E0FA220023920003F0C8FC8346584633
:1005B00000F0C4FC00F05CFC00215A46824600F0CA
:1005C000C7FCFE21306889054000400804F002FBAA
:1005D00000283CD103F068FA03F042F822002B0017
:1005E000121A8B41002B23DC50D000F0DDFC047884
:1005F000002C06D14478002C03D18478002C00D143
:10060000C4783B6835689A4600F0D2F90123021C91
:100610005146281C009400F0EFFF002503F020F85D
:10062000254C24184D41002D02DA0124234D64424B
:10063000012002F07DFE00F0EDFC03F011F800292E
:10064000AFD1FA21890003F03BFC8346AFE7534664
:10065000FC2158004008890504F0C2FA0028B9D0EE
:1006600043465A461B68D31A194A9342B2D96421A9
:10067000802000F0A7FB43465A461A6004F03CFB7A
:1006800002000B00484606F077FAA3E7002AACD038
:10069000CEE7FA21890003F013FC7AE70D4806F053
:1006A000E7F92BE7F09700102C9800103814002081
:1006B000FC1E0020D5020010A0860100FFFFFF7F76
:1006C000E81E0020041F002054980010001F002086
:1006D000871300001098001070B5D02480250421E5
:1006E0000C2001F077FE04210D2001F073FE24069A
:1006F000ED010E2001F0B0FE65620F20A56101F052
:10070000ABFE80231B026362114AA361114B1249A5
:10071000138088228B508B50012318000F490A68E0
:1007200090430F4A106009688B43136000220D4B01
:100730000D491A6000220D4B1A700B680C4A1B04FD
:100740001B0C13600B681B0C1B041360A56170BDB0
:10075000DC230020691800000000054078000540F7
:10076000781005405823002084000540ED23002028
:1007700084100540434B10B51870022840D0032860
:100780002ED0012800D069E0D02380221B06D201A0
:100790009A613D4B00211C68201C04F01BFA0028C4
:1007A00000D06DE0FE21201C890504F021FA00280C
:1007B00001D0FE24A405354B188804F01EFA211C34
:1007C00004F0D9F908F0D8FF314B1A685040000402
:1007D000304A000C10601B681B0C1B0413600EE0F9
:1007E0002B492C4A0B681B041B0C13600B681B0C59
:1007F0001B041360D02380221B06D2015A6110BD56
:10080000D02380221B06D2019A61214B214A1B680A
:1008100000211B041B0C13601B4B1C68201C04F0E4
:10082000D9F900282AD1FE21201C890504F0E0F91D
:10083000002801D0FE24A405144B188804F0DDF92B
:10084000211C04F098F908F097FF114B1A68030473
:1008500053401B0C0F4A1B041360D0E70C490D4A90
:100860000B681B041B0C13600B681B0C1B04136030
:10087000D02380221B06D2019A61C0E70024DBE767
:10088000002498E7ED23002058230020DC230020DB
:10089000840005408410054070B50021041C04F05C
:1008A00099F900285DD1FE21201C890504F0A0F9EA
:1008B000002823D1344B1C60344B1B78022B25D0ED
:1008C000032B3ED0012B4ED1D02380221B06D20118
:1008D0009A612F4B188804F090F9211C04F04BF911
:1008E00008F04AFF2B4B1A68504000042A4A000CBB
:1008F00010601B681B0C1B04136070BDFE24224B90
:10090000A4051C60214B1B78022BD9D1D023802257
:10091000204ED2011B069A6133681F4D1B041B0C2D
:100920002B601B4B188804F068F9211C04F023F994
:1009300008F022FF3268030453401B0C1B042B6099
:10094000DBE71449144A0B681B041B0C13600B688B
:100950001B0C1B041360D02380221B06D2015A619A
:10096000CBE70024A6E70B490B4A0B681B041B0CC2
:1009700013600B681B0C1B041360D02380221B0622
:10098000D2019A61B9E7C04658230020ED23002028
:10099000DC2300208400054084100540D023802201
:1009A0001B061202002801D05A6170479A61FCE7C9
:1009B000014B18687047C0465823002010B5144CEE
:1009C0001449200008F08EFD0222134963680A6072
:1009D00021681340C532514008320A400F490620B1
:1009E0000A600F4A0121136001F0F4FC0121052087
:1009F00001F0F0FC0121042001F0ECFC072001F0E3
:100A00002BFDD02380221B065A625A6110BDC046BE
:100A1000000004400024F4000430044000100440AE
:100A200004200440F0B5040085B0002800D181E125
:100A300002AD07220021684604F0FEF9D026072205
:100A40000021280004F0F8F980276A46BA4B3606E0
:100A5000138069462A00B7610723B84808F074FE7E
:100A60007761AF782A79EE78697907257803730181
:100A70001843D30818437B007FB21540DBB2002F28
:100A800000DA4DE15F005BB2FFB2002B00DA3EE11D
:100A90007B007FB2DBB2002F00DA2FE15F005BB298
:100AA000FFB2002B00DA20E17B007FB2DBB2002F27
:100AB00000DA11E15F005BB2FFB2002B00DA02E165
:100AC0007B007FB2DBB2002F00DAF3E05F005BB2A5
:100AD000FFB2002B00DAE4E07E407300DBB23606A2
:100AE00000D5D5E05E005BB2F6B2002B00DAC6E0BE
:100AF000730076B2DBB2002E00DAB7E05E005BB2C4
:100B0000F6B2002B00DAA8E0730076B2DBB2002E5A
:100B100000DA99E05E005BB2F6B2002B00DA8AE000
:100B2000730076B2DBB2002E00DA7BE05E005BB2CF
:100B3000F6B2002B00DA6CE072405300DBB2120612
:100B40005FD45A005BB2D2B2002B52DB530052B2D8
:100B5000DBB2002A45DB5A005BB2D2B2002B38DB95
:100B6000530052B2DBB2002A2BDB5A005BB2D2B286
:100B7000002B1EDB530052B2DBB2002A11DB5A00FD
:100B80005BB2D2B2002B09DB6171891A4B42594129
:100B9000206001202571A17105B0F0BD07235A40E6
:100BA000F2E7072253405A005BB2D2B2002BEBDAD5
:100BB000F4E707235A40530052B2DBB2002ADEDAD0
:100BC000EFE7072253405A005BB2D2B2002BD1DAD2
:100BD000EFE707235A40530052B2DBB2002AC4DACF
:100BE000EFE7072253405A005BB2D2B2002BB7DACC
:100BF000EFE707235A40530052B2DBB2002AAADAC9
:100C0000EFE7072253405A005BB2D2B2002B9DDAC5
:100C1000EFE707235E4072405300DBB2120600D4B8
:100C20008FE7EEE7072673405E005BB2F6B2002B5B
:100C300000DB81E7EDE707235E40730076B2DBB2AD
:100C4000002E00DB72E7EDE7072673405E005BB223
:100C5000F6B2002B00DB63E7EDE707235E4073008D
:100C600076B2DBB2002E00DB54E7EDE707267340D7
:100C70005E005BB2F6B2002B00DB45E7EDE7072331
:100C80005E40730076B2DBB2002E00DB36E7EDE7A4
:100C9000072673405E005BB2F6B2002B00DB27E74D
:100CA000EDE707235F407E407300DBB2360600D4D9
:100CB00018E7EDE707277B405F005BB2FFB2002B30
:100CC00000DB09E7EDE707235F407B007FB2DBB283
:100CD000002F00DBFAE6EDE707277B405F005BB201
:100CE000FFB2002B00DBEBE6EDE707235F407B0064
:100CF0007FB2DBB2002F00DBDCE6EDE707277B40AD
:100D00005F005BB2FFB2002B00DBCDE6EDE707230F
:100D10005F407B007FB2DBB2002F00DBBEE6EDE779
:100D200007277B40DBB25F005BB2FFB2002B00DB2A
:100D3000AEE6ECE700202FE7A03000000000044002
:100D400070B506000C00101C0021151C03F048FFB4
:100D500000281CD18023A01B5B0398420FDD0D4BA4
:100D60009C46604403F04EFFD421890503F003FF45
:100D7000291C03F0ECFE084903F0FDFE70BD074B93
:100D80009842EFDA80239B039C466044EAE7002008
:100D9000F4E7C0460000E0FF000070420000F0FFF2
:100DA00010B508F03DFC1F211A2001F013FB0022B2
:100DB00000211A2001F028FB00211A2001F038FB45
:100DC00010BDC046F0B557464E46DE464546E0B536
:100DD0008246894683B000283FD000239846E0230E
:100DE000DB01002400259B461D4F1E4E5A463B68E2
:100DF00013401D4A136004238022336052003B6875
:100E00001342FCD07B689BB2009300230193009AAD
:100E1000019BA4185D414B46002B19D101239C4630
:100E2000E044C245E2D12900200003F057FF041C32
:100E3000504603F0E2FE011C201C03F088FE0B4B21
:100E4000186003B0F0BCBB46B246A946A046F0BD50
:100E50004846002102F0F6F9E0E7044B1868F0E795
:100E600000C0044000E0044000D004409C11002079
:100E7000E021174AC901136810B50B4015490B60F2
:100E80000421154B1960FC3113680B42FCD05068EB
:100E900080B203F0B2FE114903F059FE104903F08D
:100EA0006AFE104903F053FE0F4B041C0B491868EF
:100EB00003F04DFE0A4903F05EFE0A4903F047FEC7
:100EC000011C201C03F03DFE084903F040FE10BD4C
:100ED00000C0044000D0044000E0044000F07F4522
:100EE00033335340C3F5283F9C110020CDCCCC3D7B
:100EF00010B5142001F0B0FAD02380221B06520353
:100F00009A6201210022142001F07EFA064B074A62
:100F10001A60074A5A6064229A600022054B1A60E0
:100F2000054B1A6010BDC046F01E00200000A04115
:100F300000803B45081F0020EC1E00200022024BD1
:100F40001860024BDA707047EC1E0020081F00206A
:100F5000F8B5D023140001221B065B680F4DDB029D
:100F60000F4FDB0F534040002B700E1C40083968B8
:100F700003F03EFE431E9841311C6870786803F010
:100F800029FE431E9841074BA8701B68E41ABB68F2
:100F90009C4201D90123EB70F8BDC046081F002018
:100FA000F01E0020EC1E002000487047081F0020A3
:100FB00010B50024082200210D4803F03DFF402217
:100FC00000210C4803F038FF0B4B00210B481C603C
:100FD00000F082F90A4B18700A4B1C60002805D0FB
:100FE0000949064A094805F0C7FD10BD0849F8E758
:100FF000D81E00200C1F00204C1F00202D6A00006E
:10100000E9230020E41E00207C9800108C9800103A
:1010100084980010F0B5534BA1B01B78002B01D180
:1010200021B0F0BD4021684600F0E2F9041EF7D07F
:10103000009E02F015FB00293AD0FA22002392000C
:1010400002F07CFF0500484F3B68EB1AF92B3DD8B6
:10105000032C33D9009B454A934248D0444A9342DB
:101060003CD1444D2C68002C2CD13C22002142481C
:1010700003F0E2FE414B403441492C600B602200FA
:1010800010A803F0DFFE109E02F0EAFA002959D002
:10109000FA220023920002F051FF05003B68EB1A90
:1010A000F92B55D82100374A10A800F0C9F9B7E745
:1010B000FA21890002F004FF0500C4E72D4B1C68EB
:1010C000002CADD0402CABD82D49D8E723003200FE
:1010D0002D492E4805F050FD3D60B9E73C22002126
:1010E000254803F0A9FE0424294B224DC4E73F2CD8
:1010F000F4D9019C0021201C03F06CFD00282FD1A5
:101100002449201C03F074FD002800D0214C6B46BC
:101110001B7A21495A1E93416A46527A0C60501E2E
:101120008241120213438B806B469B7A12485A1EEF
:1011300093413C228B71002103F07EFE0424174B67
:101140000C4D99E7FA21890002F0BAFE0500A5E7E7
:101150002300320012490D4805F00EFD3D60A1E765
:101160000024D4E7E9230020E41E0020746972778C
:10117000646165724C1F0020101F0020617461645F
:101180000C1F00202D6A0000AC980010B0980010D1
:101190006F72726500803B46D81E00206E6B6361E3
:1011A000D098001010B5002804D0034B12CB12C009
:1011B000012010BD0020FCE7D81E002070B5051EE0
:1011C00010D0094B3C221C001800002103F034FE13
:1011D000064A043C22602A68054B62606A68A26085
:1011E00040221A6070BDC046101F00206174616407
:1011F0004C1F0020EFF3108272B6014B1A6070474B
:10120000E01E0020024B1B6883F310887047C04625
:10121000E01E0020D02380221B0692029A617047B4
:10122000D02380221B0692025A61704710B50A0033
:101230000100024808F080FA10BDC04600C003401B
:1012400000B583B06B460122D91D0870024808F032
:1012500073FA03B000BDC04600C0034010B582B0B1
:101260006A46FF23694693710023D41D2370220030
:1012700001330631024808F067FA207802B010BD49
:1012800000C00340F0B54746CE4680B50F0083B09E
:1012900000291AD06B46DE1DFF2399460023050066
:1012A000002498466B464A4669469A714346320086
:1012B000337008480123063108F046FA01343378C8
:1012C000A4B22B700135A742ECD103B0C0BCB94623
:1012D000B046F0BD00C00340F0B5334D334C8BB089
:1012E00028801120217001F0B7F8D0238022304EE1
:1012F0001B0692025A6230005A612E4908F0F2F839
:1013000002222D4973680A6031681340053251404A
:10131000C8320A40294912200A60294A0121136073
:1013200001F058F80121132001F054F80121102098
:1013300001F050F82349244800F02CFD23492448AB
:1013400000F03AFD2349244800F048FD2349244891
:1013500000F05AFD234B6A461900C0C9C0C2684656
:101360001100C0CBC0C200F0A1FD002804D00020B5
:101370001D4B18700BB0F0BD04A802001B4BC2CB74
:10138000C2C242CB42C2198811809B78937000F090
:1013900013FE012302212A88207800F001FC002896
:1013A000E5DB0120E4E7C046DA230020E823002043
:1013B00000C00340002D310104F0034000D0034081
:1013C00004E0034005120010F51100102112001076
:1013D00015120010411200105D1200102D120010A5
:1013E00085120010D4980010E7230020B89A00104E
:1013F00010B5104B84B01B78002B03D0002801D00F
:10140000002902D1002004B010BD0A2300226B4441
:101410001A8003928AB208490C78010000932000D8
:1014200003AB00F079FC0028ECDD044B039A1A6052
:10143000E9E7C046E7230020E8230020A0110020B0
:1014400010B50E4B0400187882B0002811D0002C83
:1014500011D00B484B1E83420DD80A4889B20A4B63
:10146000007800920A00210000F04AFCC317181A05
:10147000C00F02B010BD0020FBE7C046E7230020EC
:10148000FEFF0000E8230020A0110020F0B5CE46AA
:101490004746D024802580B5802783B02406AD0040
:1014A0000920BF0300F0D8FF65621520656100F0D8
:1014B000D3FF67621620A76100F0CEFF8023DB0315
:1014C00063620A20984600F0C7FF8023454EDB0088
:1014D000636230004449994608F004F80222434907
:1014E00073680A603168134005325140C8320A40BF
:1014F0003F4912200A603F4A0121136000F06AFF51
:101500000121132000F066FF43460A20A36101F089
:101510000FFF43467820636101F00AFF6A4601230A
:10152000D3716B460122D91DA7613000A56108F077
:1015300003F99620656101F0FBFE6A461123D37121
:101540006B460122D91DA7613000A56108F0F4F8AF
:101550007820656101F0ECFE6A463A23D3716B4650
:10156000A761D91D01223000A56108F0E5F86A469F
:101570006623656153716B466761591D0122300016
:10158000A56108F0D9F86A4636236561D3716B46C8
:10159000A761D91D01223000A56108F0CDF86A4687
:1015A0006023656193716B466761991D012230006C
:1015B000A56108F0C1F86A4629236561D3716B46BD
:1015C0000122D91DA7613000A56108F0B5F81420EB
:1015D000656101F0ADFE4B46636103B0C0BCB94626
:1015E000B046F0BD00C00340005A620204F0034060
:1015F00000D0034004E00340F0B5D6464F464646CF
:10160000C0B586B099460EAB1B78051C9A46154BA3
:101610000C1C1868142101301860904602F050FC30
:10162000002905D006B0E0BCBA46B146A846F0BDD8
:10163000281C03F061FB534605934B4606004046C9
:1016400004930F0003F058FB02900391201C03F059
:1016500053FB054D0090019132003B00280005F03E
:101660008BFADFE7C81E0020E0980010F8B5454669
:10167000DE4657464E46E0B51C006B461B8D050006
:1016800098460BAB1B788B4616009A46072800D964
:10169000EEE047010837380000F0BEFC0F2303409E
:1016A000042B4CD90B2B4DD1380000F0B5FC8146F2
:1016B000042817D05346102B44D0042B00D0C8E088
:1016C00003000A3BDBB2012B3CD9C0231B010422DF
:1016D000F818210000F04CFD03234A461340022B6A
:1016E00000D192E0002E00D1C5E0637822781B0281
:1016F0001343A27812041A43E3781B06134300D164
:10170000A1E04346002B05D1380000F085FC4007DE
:1017100000D4AAE0C0239B009946B944484600F093
:101720007BFC422811D0EF23184022280DD007203F
:101730004042F0BCBB46B246A946A046F8BD0E23C7
:101740000342B1D105204042F3E7C0231B0104222C
:10175000F818210000F00CFD4346190A80235B01B4
:10176000F81800F089FC4346D9B288235B01F818C9
:1017700000F082FCF8235B01F81800F04DFC8002B9
:10178000031C80B2B04200D9331C9EB20123AB408F
:1017900098463A4B9A46280000F02AFD0400484635
:1017A00000F03AFC00282DD0534642461B881A42CE
:1017B00025D0B44250D37C1C594628003200FF3457
:1017C00000F072FD2021200000F056FC200000F007
:1017D00023FC0028FAD180239B009C461024082576
:1017E000674401E0054239D1380000F015FC04429D
:1017F000F8D03800102100F03FFC300099E7B442E7
:10180000C9D3D8E70420404293E74346002B2CD0AD
:10181000190A80235B01F81800F02EFC4346D9B268
:1018200088235B01F81800F027FC002E23D0637892
:1018300022781B021343A27812041A43E3781B0692
:10184000134300D066E7380000F0E6FB400700D500
:1018500057E70C2040426CE700206AE73800082177
:1018600000F00AFC0D20404263E70B20404260E795
:10187000012040425DE70E2040425AE7DE2300206F
:10188000F8B545012E000935FF3507001021280065
:10189000083600F0F1FB280000F0BEFB041EFAD170
:1018A00080239B00F0181F2100F0E6FB0123BB40C2
:1018B0000C490A889A430A800B490A889A430B4BC1
:1018C0000A807A00D4520022094BDA55C0239B00CB
:1018D0009C466644300000F09FFB0028FAD101309E
:1018E000F8BDC046DE230020E0230020A82300200E
:1018F000A0230020F0B54546DE4657464E46E0B5EB
:1019000089B00500049101920593072800D92BE1C5
:10191000430108331800029300F07EFB0F2303906D
:101920000340042B69D90B2B00D025E1019B002B30
:1019300000D11DE1954B9A466B009B4653465A4693
:101940009B5A002B62D1C02292009446029B012731
:10195000634498468E4BAF4099464346B8461F00B5
:10196000280000F073FC04000600380000F054FB6F
:10197000002800D1C0E04B4642461B881A4242D0A4
:10198000002C00D1C3E00723039A1340032B00D19E
:1019900083E0042B00D1BFE0022B00D0BAE0534615
:1019A0005A46029F9B5A0137FF37002B4AD106AC9B
:1019B00021002800082200F0B1FC4021380000F08E
:1019C0005BFB380000F028FB0028FAD1514658464E
:1019D000059A2378137063785370A3789370E37833
:1019E000D370A388129A5BBA1380E288694C52BA0A
:1019F00093B20A528022625525E00E23034295D10C
:101A0000133B984641E0002CAAD0BCE7072203997B
:101A10000A40032A00D173E0042A10D0022A0ED013
:101A20000023002698463100280000F0B1FC534600
:101A30005A46029F574C01379E52FF370EE0029FD5
:101A40000137FF37534C019A161C9A4252D8B6B24E
:101A500032002800049900F061FCB04640213800B3
:101A600000F00AFB380000F0D7FA0028FAD15A46F5
:101A7000534659469B5A52469B1B9BB25352002BCE
:101A800002D00123605D18436055404609B0F0BCA8
:101A9000BB46B246A946A046F0BD53465A46029FF1
:101AA0009B5A0137FF37002B2ED106AC21002800AE
:101AB000062200F033FC4021380000F0DDFA380047
:101AC00000F0AAFA0028FAD1059A23785946137033
:101AD00063785370A3789370E378D3705246A388E9
:101AE0002C4C5BBA53528022019962559AB20E1C5B
:101AF0009142ACD91E1CAAE704235B429846C4E776
:101B00000026029F0137FF37B046224CA6E700238C
:101B10009846BAE7A04686E753465A46029F9B5A24
:101B20000137FF37002B00D08CE706AC21002800DE
:101B3000022200F0F3FB4021380000F09DFA38004B
:101B400000F06AFA0028FAD162782378023A1B0280
:101B50009B18594652469BB253520F4A93420FD894
:101B600080220C4C62556EE701235B4298468CE75D
:101B70000E235B42984688E705235B42984684E73C
:101B80002800FFF77DFE054B98467EE7A82300203E
:101B9000DE230020A0230020EA05000017FCFFFF41
:101BA000F0B5C64600B505000E0090461F0082B095
:101BB000072800D993E00F230B40042B62D80E2294
:101BC0000A4200D077E0012B67D1F0200422000107
:101BD00001A900F083FA0320019B4042002B4DD065
:101BE0007B0755D4002F04D0012E68D121233B421E
:101BF0004ED02800FFF744FE0F2339006C019943B3
:101C000008342000314300F037FA4346002B47D018
:101C1000190ADEB28023DB00E01800F02DFAA023C1
:101C20003100DB00661CE018FF3600F025FA0121C8
:101C3000300000F021FA300000F0EEF90028FAD16F
:101C4000012319003B40A940AB40264E32888A430D
:101C50001343254A338013888B431380234B6A0038
:101C6000D0520022224B5A55C0239B009C4664440C
:101C7000200000F0D1F90028FAD068B202B080BC90
:101C8000B846F0BD0B2B06D90E2B06D17B07B0D57D
:101C900006204042F2E7092BF8D805204042EDE744
:101CA000144A15491688731C9BB28B4212D0310A14
:101CB0001380F6B2AEE77B07EAD4002F99D0022E4C
:101CC00097D130233B4200D193E77BB2002B00DA5F
:101CD0008FE7DDE7094BEF26FF2113809AE701200C
:101CE0004042CBE7DE230020E0230020A823002091
:101CF000A0230020A4110020F0FF000000C0FFFF7F
:101D000030B583B06C460425248B01950094FFF711
:101D1000ADFC03B030BDC04610B582B0049C009449
:101D2000FFF7E8FD02B010BD7047C0460078C0B2B2
:101D30007047C04601707047002070477047C0462A
:101D4000F8B50E1E0AD005000024054FFB69984720
:101D50000134A4B228700135A642F7D1F8BDC046BF
:101D6000A8110020F8B50E1E0AD005000024054F6A
:101D7000013428783B6AA4B298470135A642F7D1CE
:101D8000F8BDC046A81100207047C0467047C04645
:101D90007047C046002805D0002903D0034B1961C5
:101DA000D860704702490348F8E7C046A8110020F0
:101DB000891D0010291D0010002805D0002903D01E
:101DC000034B99615861704702490348F8E7C046E0
:101DD000A8110020911D00108D1D0010074B1A88BE
:101DE000920500D4FEE7002804D0002902D0196231
:101DF000D861704702490348F9E7C046A81100209E
:101E00003D1D0010391D0010074B1A88920500D4A3
:101E1000FEE7002804D0002902D09962586270477A
:101E200002490348F9E7C046A8110020651D0010CB
:101E3000411D0010902000B587B004A906220001C2
:101E400000F04CF9802001A90422400000F046F97E
:101E5000A02002A90422C00000F040F9F0200422D2
:101E600003A9000100F03AF98021002000F004F9F4
:101E7000002000F0D1F8902004A90622000100F013
:101E800077F9802001A90422400000F071F9A02018
:101E900002A90422C00000F06BF9F020042203A97B
:101EA000000100F065F907B000BDC046F8B50400B8
:101EB0000E00FFF7BFFF002C38D00022A256237877
:101EC000102A00DD6FE062789B18DAB25BB2102B4B
:101ED00069DCA378D318DAB25BB2102B63DCE37849
:101EE000D318DAB25BB2102B5DDC2379D318DAB2E7
:101EF0005BB2102B57DC6379D318DAB25BB2102BCC
:101F000051DCA379D318DAB25BB2102B4BDCE37946
:101F1000D21852B2102A46DC244D254F28002178D1
:101F2000203500F0A9F80134BD42F7D1002E38D099
:101F30000022B2563378102A35DC72789B18DAB258
:101F40005BB2102B2FDCB378D318DAB25BB2102B54
:101F500029DCF378D318DAB25BB2102B23DC3379A7
:101F6000D318DAB25BB2102B1DDC7379D318DAB256
:101F70005BB2102B17DCB379D318DAB25BB2102B3B
:101F800011DCF379D21852B2102A0CDC3400094D5E
:101F9000064E28002178203500F06EF80134B54255
:101FA000F7D10020F8BD01204042FBE7081F0000E8
:101FB00008200000081E000010B504009020210039
:101FC0000622000100F0D4F82100802004220E3106
:101FD000400000F0CDF82100A02004220A31C0000A
:101FE00000F0C6F8F020A11D0422000100F0C0F8A6
:101FF000E37CA27C1B021343227D054912041A4391
:10200000637D1B0613430B60A27D024B1A7010BD4B
:1020100048160020E223002070B50500154C82B060
:10202000E368984763699847636A280C2E0AC0B230
:10203000F6B2EDB2002B0AD0A26A002A07D001AB9B
:102040001870032118005E709D70904707E0236AA6
:1020500098473000236A98472800236A9847E36925
:1020600098470500A369984723699847280002B05C
:1020700070BDC046A8110020F0B5174D83B0EB68C5
:1020800004000E0098476B6998470422AB6A22430C
:10209000200C240AC0B2E4B2D7B2002B0FD0240225
:1020A0003F0420433606384330430190042101A801
:1020B0009847AB6998472B69984703B0F0BD2B6AE6
:1020C000984720002B6A984738002B6A98473000C1
:1020D0002B6A9847EDE7C046A8110020F0B5C64628
:1020E000040000B5214E82B0F3680D001700984738
:1020F00073699847230ADBB29846736A200CC0B212
:10210000E4B2002B16D0B26A002A13D0414601ABCC
:1021100018705970180003219C70904739002800EE
:10212000736A9847B36998473369984702B080BC8F
:10213000B846F0BD336A98474046336A9847200056
:10214000336A98470024002FECD0F3699847013494
:10215000A4B228700135A742E4D0F369984701344E
:10216000A4B228700135A742EFD1DBE7A811002007
:10217000F0B5C64600B51D4E82B0F36804000D00F0
:1021800017009847736998470421B26A2143230CCA
:10219000C9B2240A8846DBB2E4B2002A11D001A8F1
:1021A0000370817044700321904739002800B36A9E
:1021B0009847B36998473369984702B080BCB846DE
:1021C000F0BD1800326A90472000336A98474046B5
:1021D000336A98470024002FEBD001342878336A03
:1021E000A4B298470135A742F7D1E2E7A811002031
:1021F000F0B5144BC6469846134B00269C4600B5D6
:102200004701B84467444046FFF706FF050238001F
:10221000FFF702FFADB24419A4B2002C05D1002E85
:10222000F1D1300080BCB846F0BD4046FFF7F4FE67
:1022300005023800FFF7F0FEADB24619B6B2B4425F
:10224000E1D1EEE70820000008210000F0B5144BB2
:10225000C6469846134B00269C4600B54701B84435
:1022600067444046FFF7D8FE05023800FFF7D4FE6A
:10227000ADB24419A4B2002C05D1002EF1D130002A
:1022800080BCB846F0BD4046FFF7C6FE05023800E8
:10229000FFF7C2FEADB24619B6B2B442E1D1EEE7E5
:1022A0000826000008270000F0B54F46D6464646EF
:1022B0001400C0B50F00002A2AD0830099465D1C87
:1022C0009023ED009B01EE183000FFF7A5FE94234C
:1022D0009B019C46824665442800FFF79DFE5346BD
:1022E0001B02C01883B298464B46981C43462200F6
:1022F0001B02C0004444C0183900A4B2FFF738FFE5
:102300003000210AFFF7B8FE2800E1B2FFF7B4FE63
:10231000E0BCBA46B146A846F0BDC046F0B54F464F
:10232000D64646461400C0B50F00002A2AD08300C6
:1023300099465D1CA023ED009B01EE183000FFF7CD
:102340006BFEA4239B019C46824665442800FFF750
:1023500063FE53461B02C01883B298464B46D81CF6
:10236000434622001B02C0004444C0183900A4B2F6
:10237000FFF7B4FE3000210AFFF77EFE2800E1B22D
:10238000FFF77AFEE0BCBA46B146A846F0BDC046AB
:10239000F8B50F4B45019C462E00654428000F0000
:1023A000FFF73AFEA4239B019C46083666440400CE
:1023B0003000FFF731FE2402C0192418A4B228000F
:1023C000210AFFF759FE3000E1B2FFF755FEF8BDD4
:1023D00008280000094A83009A1810B514684022A2
:1023E000544080322240064CC000A44663441A6028
:1023F000044B9C466044416010BDC04604C001408F
:1024000004D0014000400140074B8000C3181B6806
:10241000C90092000A435A400C231340034A9446D1
:10242000604403607047C04604C0014004D00140CE
:102430008000002905D0064B9C4640236044036081
:102440007047044B9C46402360440360F8E7C04655
:1024500004E0014004F001400123D0228340120631
:1024600093629361094A83009A181168402251408F
:1024700080320A400649C0008C4663441A60054B0E
:102480009C460523604443607047C04604C0014039
:1024900004D00140004001408023DB051868000F94
:1024A0007047C0460FB400B5084883B004F0E0FAA6
:1024B000049B002B07D005A91800019104F02AF90C
:1024C000034804F0D5FA012004F03CF914990010F7
:1024D0002499001070B5EFF3108C72B60D4D2B6877
:1024E000002BFCD0BFF35F8F0724CB08C618C05C5D
:1024F00001230C40A3401C000440034207D11843B1
:102500003070BFF35F8F2C608CF3108870BD1000AB
:10251000FFF7C8FF2C0100D0F8B54746CE468846E5
:1025200080B5EFF3108C72B61C4D2C68002CFCD0DB
:10253000BFF35F8F9A4222D807210126894602E025
:102540000132934218D34D4637001540AF40D408AE
:102550000119045D2742F3D110003C430C70BFF316
:102560005F8F00220D4B1A608CF3108800280EDB61
:10257000C0BCB946B046F8BD01204042EFE7BFF30A
:102580005F8F00232B608CF310880120404243466C
:10259000002BEDD00898FFF785FFC0462C0100D036
:1025A000044A1078431CDBB2172B00D91023137098
:1025B0007047C046D411002010B5064B064C82B0BF
:1025C0000100009318221F232000FFF7A5FF02B08F
:1025D00010BDC04628990010701E00200021044B39
:1025E000044ABFF35F8F02C39342FAD17047C046DB
:1025F000000100D0800100D0054B064A1360064A56
:10260000136053609360D3601361536193617047AB
:102610008080808000E400E004E400E01F23184094
:102620001E3B8340002905D0C021044A4900535075
:1026300013607047802201498B50FAE700E100E007
:1026400001228240034B1B6813405A1E9341D8B2AB
:102650007047C04600E100E001238340014A136057
:102660007047C04600E200E0084B10309B688000D5
:10267000C358002B07D0064A00209B1A2F229A42EB
:102680004041C0B270470020FCE7C04600ED00E0CA
:10269000D811002070B50D00EFF3108672B60F4A06
:1026A0001368002BFCD0BFF35F8F0D4B10309B687D
:1026B00084001B590B4A934203D09D4201D001F084
:1026C000F9FA074B9B681D51BFF35F8FBFF35F8F14
:1026D0000022024B1A6086F3108870BD240100D0DE
:1026E00000ED00E0CD010010F0B557464E46DE4645
:1026F0004546E0B585B0060000911700EFF3108B5A
:1027000072B66A4A1368002BFCD0BFF35F8F0025B6
:10271000674B5D579A46002D00DAA9E06B00654CC7
:1027200001935B199B009846A146C1444B46524613
:102730009B7910361370604BB6009B6899590B1B40
:102740002F2B33D95D4B994200D0ACE0019B424620
:102750009C465B4B6544AD0063535A4B0232A21852
:10276000043B9B1A1B05584A5B0D651913436B808C
:10277000564B0121AB80FF23AB71009BEF71AB6027
:102780004B460B4319004C4B9B689951BFF35F8F2D
:10279000BFF35F8F0022454B1A608BF3108805B0A2
:1027A000F0BCBB46B246A946A046F0BD01200A00D7
:1027B0008243D3798C46BB4231D845461300444905
:1027C0001B1B5B415943090D3D4B63533D4B023588
:1027D0006519043B5B1B1B053B4D5B0D2B43AA4658
:1027E0004D466B800425AC465546E044131F4444D7
:1027F0001B1B1B055B0D1D434B46997100999D806A
:1028000099604946DF71334B01431360BBE75800C1
:10281000C01880002018C179B9422FD902000623C0
:10282000D356002BF3DA02932B4B61460393131D0F
:102830009A4604235B429C46E14450464B461B1A91
:102840001B055B0D9C46204B9571984663464046A0
:1028500003439380019B5A199200039BA418A38001
:10286000029B1C4AA371009B2260E771A3608AE768
:1028700001F020FA002553465D574FE790880293F8
:102880004005131D9A46031561469C464046D444B4
:10289000634604302018181AE0230005400D1B027F
:1028A00018430390C5E701F005FA4FE7240100D073
:1028B000EA230020D811002000ED00E0CD01001037
:1028C00000A1FFFF0812002000E0FFFF01BDFFFF95
:1028D000AAAA00000148804701BD0000F0B5DE460D
:1028E00057464E464546E0B50C0083B0EFF31088DE
:1028F00072B6634A1368002BFCD0BFF35F8F614B45
:1029000061499A68030010339F00D55901938D42A5
:1029100043D0A54254D05D4EAA1B2F2A3DD85C4B14
:102920009B461B68994601231A009C4682404B46F1
:1029300013401F2299466346024093409A468022E4
:102940005B4650469850BFF35F8FEFF305839B467D
:10295000002B37D0019B5B4501D001F0ABF901237F
:102960002A009A439068844208D176E04B005B18B5
:102970009B00F3189868844236D01A0006215156FD
:102980000029F3DA844254D04B46002B27D0C022D2
:1029900051463F4B5200995019603A4B9B68DD51AC
:1029A000BFF35F8FBFF35F8F0022354B1A6088F350
:1029B000108803B0F0BCBB46B246A946A046F0BDA5
:1029C0000D00EAE72A0063469A4390688442D5D115
:1029D00006201056130000280ADA0D0031E080238B
:1029E00051462B4AD150D8E706201856002821DB43
:1029F00042001118890074188B46A1689960E1792A
:102A0000D971062161569971002924DBA488F11A35
:102A1000640524155C44091909051E4C490D214320
:102A2000998013181C4A9B001178F3189971107043
:102A3000AAE713005946002914D1FF3191711749B3
:102A4000918015490A789A71154A9B1B5B415A433C
:102A5000120D0A7098E71149E2E70620105613009C
:102A60000028C5DA0F4A1049D21A083A5002400D20
:102A7000014399800D4952080A43DA8084E7C04631
:102A8000240100D000ED00E0CD010010D81100209D
:102A900000E100E000E0FFFFEA23002001BDFFFFAE
:102AA000AAAA00001212002000F0FFFF00F8FFFFAA
:102AB00070B501240443EFF30581EFF3108C72B677
:102AC000214A1368002BFCD0BFF35F8F1F4B05001A
:102AD0001F4AED1A6D416A43120D1E4D8900AE6802
:102AE00052B27658A6421CD00621595691421CD0AB
:102AF00012215956914222D01E215956914220D07E
:102B00002A2159560324914210D0134B19781A7078
:102B10008171BFF35F8F00220B4B1A608CF310881A
:102B200070BDAB680D4C5C50EFE7002461000919E3
:102B300089005B18FF21997109499980E5E7012413
:102B4000F4E70224F2E7C046240100D0D8110020A7
:102B5000AAAA000000ED00E0EA230020CD01001049
:102B600001BDFFFF10B5084B084C82B00100009377
:102B7000002205232000FFF7CFFC002801DB1F23E4
:102B8000181A02B010BDC04644990010EF2300206F
:102B9000024B9C466144890001607047400000344C
:102BA00070B5114C114DAC420FD2FF262368002B9B
:102BB0000CD0FFF7F5FC01002000FFF7E9FFA6802D
:102BC000BFF35F8F0834AC42F0D370BDFFF7E8FC71
:102BD00001002000FFF7DCFF2671BFF35F8F083490
:102BE000AC42E3D3F1E7C046B0120020B812002097
:102BF00010B50400FFF7D4FC01002000FFF7C8FF68
:102C0000FF232371BFF35F8F10BDC04610B50400D2
:102C10000120FFF7D1FC034BC3189B002360BFF3D7
:102C20005F8F10BD40000034034B9C466144890017
:102C30000160BFF35F8F7047400000340A4B196892
:102C4000EFF3108072B60A68002AFCD0BFF35F8FE2
:102C50001B68BFF35F8F00221A6080F3108840BFAB
:102C6000002000217047C0469C230020F0B5DE46BE
:102C700057464E464546E0B587B0EFF3058203233D
:102C8000012513409D409900B34AB44B54581D6030
:102C9000B34B8846A946049329E0A3881BB2002BB6
:102CA00000DBA5E0A379002B00D0E6E00823E05E7E
:102CB000002800DA0FE1430062691B18DB00D3181B
:102CC0009E68DD68731C00D111E1A64B19004144D8
:102CD0009A6A0B69B01A9B1A984200D20E61A148F9
:102CE00000F0B6FC8D4200DDF5E000D12BE14B4653
:102CF0009C4843630823E55E002DCEDB62696B00D0
:102D000092465B19DB009A4453469E68DF6800F0E8
:102D10009FFC8F42C1DC00D10BE1002F00DAF0E014
:102D20005246534652691B699346049A934200D116
:102D3000E1E052460821605E528800045946104383
:102D40009847029003910299039A0B0010001343D5
:102D500000D1D6E013000A00B61A9F41002806DB16
:102D6000804800F075FC029E039F36184F41534681
:102D70009E60DF6000229A5E002A8EDB5300991865
:102D80006069C900411801938B68C9689B46B942C4
:102D900000DD82E702D1B34200D97EE708239C46DA
:102DA000A444059565462281A446019B2C0006E0BB
:102DB00053009918C90041188D68C968AB469B1823
:102DC000DB00C318B94206DC00D1C0E01C000023C0
:102DD000E25E002AECDA230064469C4653461A80E1
:102DE0006346059D1D80A3881BB2002B00DA59E7BE
:102DF0002269EFF3108172B61368002BFCD0BFF389
:102E00005F8F0123A7885B42A3803FB22369BFF392
:102E10005F8F00221A6081F31088002F00DA41E7EB
:102E20002300083322009A4666697B00DB19DB0029
:102E3000F318996850468C460824115FDD68002914
:102E400010DB019306E0AB424DD00023E15E200091
:102E5000002906DB4C006418E4003419E368AB4237
:102E6000F1DD019B078000201F5E1980002FDCDA56
:102E70001400A379002B00D118E70023A3712600CA
:102E80000823E15E08364B1C25D00800A246656980
:102E900002E03E004B1C1AD04B005B18DB00EF1821
:102EA0000A008C46E95E7B881BB2002BF1DA012315
:102EB0005B42DC17BB60FC60824205D05346318028
:102EC0001B893B8053461A8160464B1CE4D1544613
:102ED000002800DBEFE640BF07B0F0BCBB46B246BF
:102EE000A946A046F0BDA3686345AED9B9E76B1CFF
:102EF00000D0EAE6F3E65B4658461B69984700288F
:102F00001BD153461B8822692381EFF3108372B6CD
:102F100011680029FCD0BFF35F8F514662880A8098
:102F200022696580BFF35F8F0021116083F31088F1
:102F3000B3E6864200D8F0E6AFE65B461A685B6807
:102F400002920393FFE6864200D8D0E6C3E7B3457A
:102F500000D83BE73FE7C046802300203C70054097
:102F60006D2C00100040054070B52E4C2569002DD9
:102F700004D00A212C48FFF70BFE70BD2B4E032115
:102F8000300000F05BFBE660FFF70AFB284B0322F2
:102F90009C46D02322701B061B6801216370254BC1
:102FA0006044A3600F238000206102206380636976
:102FB0004942A18019800231198647311D83585238
:102FC00018315A5275325C3999521832013199527E
:102FD000183201319952183201319952083518329C
:102FE0009D520231183299521832013199521832D9
:102FF00001319952183201319952183201319952E6
:103000001832013199520C4B0C49DC6001303562A9
:10301000FFF740FB01210320FFF700FB084B1D6079
:10302000A7E7C046201200209C2300200040054056
:1030300040000034FFFF1000802300206D2C0010A2
:10304000386005400048704720120020F8B51F0086
:1030500008AB1B7804001600002B08D100F000FB21
:1030600032003B00121A8B41002B00DA52E0226939
:10307000EFF3108072B61368002BFCD0BFF35F8FA4
:103080000223E15E63694A005218D2009B1822694C
:10309000002936DB1D886580BFF35F8F0025156032
:1030A00080F31088069A9E60DF601A61079A5A6161
:1030B0005A8801325204520C101C002A1FD082B2CE
:1030C0005880080410432669EFF3108772B63268FF
:1030D000002AFCD0BFF35F8FA2881A80A1802369E9
:1030E000BFF35F8F00221A6087F310880A492378A4
:1030F0008C4601329A40E36863441A60F8BD0120AF
:10310000DDE7BFF35F8F0023136080F31088012099
:103110004042F3E70020F1E73C20000070B50100D9
:103120000469EFF3108C72B620680028FCD0BFF35E
:103130005F8F02200D5E4C6968004019C0002418A2
:103140000869002D36DB26884E80BFF35F8F00268E
:1031500006608CF31088E360638804980133206173
:103160005B0405985B0CA26060611A1C002B1FD0E9
:1031700093B22804628018430A69EFF3108C72B688
:103180001368002BFCD0BFF35F8F8B8823808D806A
:103190000B69BFF35F8F00221A608CF310880B78E5
:1031A00001329A40CB6808498C4663441A6070BD6E
:1031B0000122DDE7BFF35F8F002303608CF31088EB
:1031C00001204042F3E7C0463C20000010B543898F
:1031D0000A1493421ADD53009B184269DB00D3188E
:1031E0000469EFF3108C72B62268002AFCD0BFF39A
:1031F0005F8F5A88090494B2090C8A4208D0036987
:10320000BFF35F8F00221A608CF31088002010BD7E
:103210008022120214435C80012302698371BFF390
:103220005F8F002111608CF31088044902788C466E
:103230009340C268012062441360E8E73C2000002C
:1032400040787047F0B5C64600B582B004000D0066
:1032500000F006FA24184D41002D02DA01242F4D0A
:10326000644206267642F71736196F41AF4214D8EA
:1032700011D000F0F5F932003B00121A8B41002BFF
:1032800015DC002B46D02000290000F027FA02B000
:1032900080BCB846F0BDA642EBD90026002700F05E
:1032A000DFF932003B00121A8B41002BE9DD00F000
:1032B000D7F932003B00121A8B41002B0ADB0023A6
:1032C0000193174B3200009316483B00FFF726FF8F
:1032D0000130D8D000233900B0469C46124A13482A
:1032E000536A994204D8966A4645CCD29942CAD1CB
:1032F0000668EFF3108772B63368002BFCD0BFF37B
:103300005F8F0368BFF35F8F66461E6087F3108888
:1033100020BFE5E7002AB6D0C9E7C046FFFFFF7F20
:103320003D2C001020120020004005409C2300206E
:10333000F0B5C64600B582B0040000F091F9FA225B
:1033400006000F00200000230021920001F0DCFBAA
:103350008019794104000D1E02DA01242E4D6442C9
:1033600006267642F71736196F41AF4214D811D0AE
:1033700000F076F932003B00121A8B41002B15DC6D
:10338000002B46D02000290000F0A8F902B080BC34
:10339000B846F0BDA642EBD90026002700F060F940
:1033A00032003B00121A8B41002BE9DD00F058F986
:1033B00032003B00121A8B41002B0ADB00230193E1
:1033C000164B3200009316483B00FFF7A7FE013072
:1033D000D8D000233900B0469C46124A1248536A9E
:1033E000994204D8966A4645CCD29942CAD1066819
:1033F000EFF3108772B63368002BFCD0BFF35F8FFA
:103400000368BFF35F8F66461E6087F3108820BF96
:10341000E5E7002AB6D0C9E7FFFFFF7F3D2C00108B
:1034200020120020004005409C230020F0B5CE462D
:10343000474680B504000D0083B0EFF3058399463D
:103440000F00002B42D1314EA0463378F068043390
:103450009B00816A1B58601A5B1A984212D320BFE6
:103460002B4900204B6AAB4207D38A6A5B1B591E6B
:103470008B4141468A424041184303B0C0BCB94623
:10348000B046F0BD00F0ECF822002B00121A8B4180
:10349000002B28DB4B4601931E4B2200009330008B
:1034A0002B00FFF73BFE011E1DDD194B5A6AAA4295
:1034B0002AD39B6A9C4225D83000FFF787FE144A26
:1034C0000020536ABB42D8D3926ACFE7104900204C
:1034D0004B6AAB42D1D38A6A5B1B591E8B41A24215
:1034E00040411843C9E70A4A0020536ABB42C4D38B
:1034F00000204146926A5B1B8A4240415A1E93411A
:103500001843BAE7AA42D7D120BFD5E7201200203E
:10351000004005403D2C0010F0B5CE464746110056
:1035200080B583B004009C460C9D194300D16CE02B
:103530006146DB170193009353401E00019B4B40F3
:103540001F0000980199361A8F4163460A996B60F3
:103550000B9BAC6029612A606B6100F081F88019D7
:103560007941002902DA0120314940422269EFF312
:10357000108972B61368002BFCD0BFF35F8F022353
:10358000E65E636972009219D2009B182269904628
:10359000002E42DB1A886280BFF35F8F002247460D
:1035A0003A6089F31088234A9860D9601A615A8872
:1035B0005D6101325204520C111C002A2BD088B2DA
:1035C0003204024359802069EFF3108772B6016814
:1035D0000029FCD0BFF35F8FA1881980A6802369E2
:1035E000BFF35F8F0021196087F31088124823789A
:1035F0008446013199400120E36863441960EA6020
:1036000003B0C0BCB946B046F0BD00230126002778
:1036100001229C4699E70121D1E7BFF35F8F002388
:10362000136089F31088012200205242E7E7C04668
:10363000FFFFFF7F6D2C00103C20000010B5024AF8
:103640000248FEF747FF10BD60990010741E00206D
:103650000300416A0A00986A596A8A42FAD170479F
:10366000034B596A0A00986A596A9142FAD1704725
:103670000040054070B504000D00174A536A190058
:10368000966A536A8B42FAD13000190024184D41D2
:10369000AB4216D813D0104B2A005B6A9D4203D967
:1036A0000D494B6A9342FCD3934207D10A4A02E088
:1036B000516A994202D1916AA142F9D370BDA642E2
:1036C000E9D9054B5B6A1C005A1CEFD0012201248A
:1036D0006442E5175242E3E700400540064A536A58
:1036E0009942FCD807D1044B02E05A6A914202D1B8
:1036F0009A6A9042F9D8704700400540F8B5040036
:1037000006200D0000F078F9002844D0374B3849E6
:10371000E3185A1E93418022120494465B429B0D8B
:10372000344A9B0563441360334A136018000A68E7
:103730009043FBD12D4B314AE31859424B41802134
:103740005B0049000620995200F056F92900C0009C
:1037500000F0B6FB0130C3091ED14027012262628E
:10376000A362266BF30722D4E36A254B0620E518F3
:1037700000232B60266300F03FF93900800000F041
:103780009FFB7023E26A5A400E3313402B601D4B9F
:1037900023630323A364F8BD1B4A93421ED900236D
:1037A0001A4A1B4F6262A362266BF307DCD5194BE2
:1037B000144AE3181A60656AA36A0620AD01ED1881
:1037C00000F01AF9144900F07BFBAD02010028005B
:1037D00000F076FB0021FFF74DFFC5E74006800EA5
:1037E0009F011A003F180300B9E7C0460080FCBFE4
:1037F00008C0004000E0004000F00040C02300206E
:103800002C10000001030000FEFF0000FFFF00007D
:10381000C0FF3F00303000004E0E0000F8B5DE461D
:103820004E4657464546E0B58B4605000A991800B6
:10383000160000F045FB0A9B6C001F02324B641916
:103840009C46A4006444636881469F4200D9676037
:103850002B1FDBB29846012B30D9C02380229B015D
:10386000E31812011A60294BAD0059599A460029F4
:103870001BD17301E026226853401E40802342463C
:103880005B01E3181E60012A30D9802380229B014E
:10389000E31812011A6053464A4667605A51F0BC59
:1038A000BB46B246A946A046F8BD586900F008FBE1
:1038B000013043001B18033BFDD2DAE75B46012BC6
:1038C000CBD1C02303229B01E3181A60023AA368FC
:1038D0001A42FCD07301E0262268AD0053401E401E
:1038E00080230A4A5B019246E3181E605A4621680B
:1038F000514003220A401A6001225B469A40A368A5
:103900001A42FCD0C1E7C04600800040781E00206B
:10391000F0B546464F46D646C0B51F00344B44006E
:103920009C462418A4006444636888461600FF2B54
:1039300002D880235B006360031FDBB29A46012B31
:1039400030D9C02380229B01E31812011A60294B51
:1039500085005959994600291BD17301E026226838
:1039600053401E40802352465B01E3181E60012A2B
:1039700030D9802380229B01E31812011A60802332
:103980005B0063604B465F51E0BCBA46B146A84657
:10399000F0BD586900F094FA013043001B18033B56
:1039A000FDD2DAE74346012BCBD1C02303229B0192
:1039B000E3181A60023AA3681A42FCD07301E026A9
:1039C0002268850053401E4080230A4A5B019146CD
:1039D000E3181E6042462168514003220A401A60E3
:1039E000012342469340A2681342FCD0C1E7C0467F
:1039F00000800040781E0020014B8000C0587047B6
:103A0000781E0020F8B5040021481E0017000D00A4
:103A100000F056FA0100380000F052FA069B360416
:103A20001B031E432368002B20DB1A4B1A49E318A3
:103A30005A1E93418022920194465B421B0B174A07
:103A40001B0363441360164A13601F000A68974300
:103A5000FBD1144B2560E2182123A060136023687A
:103A6000002BFCDA0823E6601360F8BD3F232268D0
:103A70001340AB42D9D1A3681B051B0D8342D4D19F
:103A8000EE22E368D2021340B342CED1EDE7C04646
:103A9000001BB7000040FDBF08C0004000E0004030
:103AA00000F0004004300000024B1A68024B5A60DC
:103AB0007047C0465423002000800540194B1A4A25
:103AC00010B5DA618022194BD2051A60184C194AD8
:103AD000146000290AD0E022174BD2041A60002893
:103AE00009D18022144B12061A6010BDE022D204C4
:103AF0001A600028F5D043011B1A9B001818802378
:103B000000015B04984209D203000C4A1360802232
:103B1000044BD2055860084B1A60E6E7084B1800C2
:103B2000F3E7C046008005402131B76A00B0054088
:103B3000FCFF01000820014000A0054054230020A4
:103B4000FFFFFF0010B580241C4BE4051C6000281B
:103B50001AD001231A4C18431A4BDC611A4C44400A
:103B60001C62596298628021144BC905196017487C
:103B700017490860E021C9041960002A07D1802292
:103B8000144B12061A6010BD0E4BD861EBE75301BF
:103B90009B1A9B009A18802312015B049A4209D257
:103BA00013000D490B60074B5A608022094BD20568
:103BB0001A60E8E7094B1A00F3E7C04600B0054079
:103BC000D3C007B0008005402D3FF84FFCFF010037
:103BD0000820014000A0054054230020FFFFFF0003
:103BE000024B9868431E9841C0B270470080054060
:103BF0008023024A9B000B43D3627047008005403C
:103C0000002310B50100988A1B8B984710BDC04651
:103C1000162310B50100188802331B88984710BD81
:103C2000F8B54746CE4680B50F1E18D014239946E6
:103C3000043304000025012698464B461888434665
:103C400021681B88984701C4431E984101350640EE
:103C5000AF42F2D13000C0BCB946B046F8BD012633
:103C6000F8E7C046002370B504000D00988A0549A6
:103C70001B8B984703000020002C01DB0130A04083
:103C80002900984755420000AA23064A1B011360E9
:103C90002F230549D360054B19605368002BFCDACC
:103CA0007047C0460040024000B0FA000060024089
:103CB0007047C04610B50148FEF7F4FB8499001028
:103CC00070B5074D074EB54209D20024013E761B60
:103CD000B60808CD984723000134B342F9D170BD2E
:103CE000A8970010E4970010054B064A06491A6091
:103CF000064A074B1A6010000B689843FBD17047C7
:103D000000E00040BFCDFBFE08C00040FE7F3C004D
:103D100000F00040044BDB6C002B03D18022034BEE
:103D2000D2021A607047C046000011504C2011505A
:103D3000044A054B1A60054A1368DB018033FBD146
:103D40007047C046FFFFFF0100F0004008C0004080
:103D50004022034B9A675A671A67DA667047C04673
:103D600000F0014010B5FEF739FC10BD70B5044DF0
:103D7000044CA968C022200001F064F8AC6070BD5A
:103D800000ED00E000000020002310B5294C82B0B7
:103D9000A367FFF779FF0122274B1A60636C012BA1
:103DA000FCD10322254B1A60224A936B012BFCD1D4
:103DB000013300930121224A22480433FFF722FEF7
:103DC000052301210093204A2048FFF71BFE002213
:103DD000022104201E4BFFF79BFD0022012105203C
:103DE0001C4BFFF795FD0022002107201A4BFFF71F
:103DF0008FFD002200210820174BFFF789FD80234B
:103E0000DB000093002200210920134BFFF706FD81
:103E10000022104B00210620FFF77AFD0420FFF757
:103E2000EBFD0E4900F04CF801000020FFF7E0FE2A
:103E300002B010BD008000403CB0004030B00040F7
:103E4000002F685900800240008C864700C0024065
:103E5000001BB70040597307006CDC0240420F00A2
:103E600001480421014B184740120020213C00105A
:103E7000124A936F9B0815D29066D166002905D02F
:103E8000FFE7FFE7FFE7516F106F704704B5802130
:103E90000906C2175140002800D0C84305F034FC81
:103EA000002104BDF0B5146E556E576F166FFFF705
:103EB000E3FF1466556657671667F0BD000000D033
:103EC000114A936F9B0813D210665166002905D0E2
:103ED000FFE7FFE7FFE7516F106F704704B5002859
:103EE00001D00020C04305F00FFC002104BDC046F6
:103EF000F0B5146E556E576F166FFFF7E5FF146639
:103F0000556657671667F0BD000000D094464A4AD0
:103F1000926F9208624601D228E0C046F0B5464E44
:103F2000346E756E776F366F00F020F89446424A13
:103F300014665566576716676246F0BD94463E4A5A
:103F4000926F9208624601D254E0C046F0B53A4EF4
:103F5000346E756E776F366F00F04CF89446364AC3
:103F600014665566576716676246F0BD002B24DB62
:103F700011D000293EDA00B5C943404200D10131D9
:103F800000F038F8C943404200D10131DB435242CE
:103F900000D1013300BD002AEBD1002801D1002956
:103FA00005D00020C90FC90701D1C043410800B5A1
:103FB00005F0A2FB0022002300BD00B500290ADBAA
:103FC000DB43524200D1013300F014F8C9434042B0
:103FD00000D1013100BDC943404200D10131DB4372
:103FE000524200D1013300F005F8DB43524200D1C8
:103FF000013300BD002923D1002B18D1002A0CD099
:10400000BC460D4F38667A6600210023FFE7FFE7C4
:10401000FFE77A6F386F67467047002801D007487E
:10402000010000B505F068FB0022002300BD02007E
:104030000B00002000217047000000D0FFFFFFFFB1
:10404000002B00D0BFE0130C28D1002AE7D080B4A9
:10405000114F39667A66FFE7FFE730B4040C7B6FD7
:10406000396F1B0423433B667A66FFE7FFE7FFE7F0
:10407000C04684B27B6F3D6F1B0423433B667A6668
:10408000FFE7FFE7C04600232C042D0C7A6F386F42
:1040900000196941B0BC7047000000D0F0B59446EB
:1040A0000025140E01D112020835140F01D112019E
:1040B0000435940F01D192000235D40F01D1520082
:1040C0000135D40B0134254F7C66254C3C660E0C23
:1040D00093B2FFE7FFE7FFE73C6F6643360C7703D9
:1040E000BE467343DF0B5B04C01AB941130C734324
:1040F000DB18C91ACE086643360CB64493B2734334
:104100001F0F1B01C01AB941130C73431F0B1B0572
:10411000C01AB941860D8F023E436643360C092D05
:1041200024DB520A7243801A7703460A6643360C30
:1041300016235B1BDE40DF40BF1964466643821BCB
:104140007046043506330100D940A840C01900D399
:104150000131A24206D20023F0BD0000000000D0D1
:10416000FFFFFFFF121B0130F3D3F1E709277F1B8D
:10417000FE406446A2B27243801A00D20139220C7A
:104180007243130C1204821A99410B0070460435D5
:1041900013370100F940A840801900D30131002BEA
:1041A00002D1A2420AD2F0BD013000D30131121B6C
:1041B000FAD2013BF8D1A24200D2F0BD013000D3C7
:1041C0000131121BF7E7F0B51C0C00D080E00CB4F5
:1041D00000251C0A04D11B02160E334312020835B7
:1041E0001C0B04D11B01160F3343120104359C0B29
:1041F00004D19B00960F334392000235DC0B02D1B1
:1042000092185B4101351C00971864410134464FF8
:104210007C66464C3C660E0CFFE7FFE7FFE7C046B6
:104220003C6F6643360C7703BE4697B27743C01B9C
:1042300000D20139C01B00D201399FB27743C91B9C
:10424000C91B170C77437E04FF0B801BB941CE08B6
:104250006643360C0C2D33DBB644120B1F053A4374
:104260001B0B97B27743C01B00D201399FB2774333
:10427000C91B170C77433E043F0C801BB941860DC8
:104280008F023E43664329277F1BFE400C3D774645
:10429000AF40BF1930BCA2B2ABB272437343801AB5
:1042A0009941220C7243130C1204801A99410200A6
:1042B0000B000137001BA941F9D2781E0021F0BD87
:1042C0000C277F1BFE4077467F0BAF40FF19E0E7CE
:1042D00000245D1C07D0144F7D663966FFE7FFE7B9
:1042E000FFE7FFE73C6F95B29EB265436643401B14
:1042F000B141150C1E0C6543664336042F0C3E433A
:104300002D04401BB141994204D202000B00200051
:104310000021F0BD01D19042F7D3801A99410134B8
:104320009942F2D3F6E70000000000D0FFFFFFFF44
:1043300048404140484018B41B4B5B68FC46019321
:1043400008BD04DFDB45001018B4174B1B68FC46A2
:10435000019308BD00DFE54500109446134A926FB3
:10436000920809D2624618B40F4BDB68FC460193F1
:1043700008BD0CDF9D4800100C4AF0B5146E556E58
:10438000576F166F6246FFF7EEFF084A14665566D0
:1043900057671667F0BD18B4034B9B68FC46019342
:1043A00008BD08DF4147001048140020000000D07D
:1043B000FFB550404240504059404B40594000E00A
:1043C000FFB5154F4C00640D03D0BC4204D10C0363
:1043D00014D80020090D09055C00640D03D0BC420F
:1043E00004D11C030AD800221B0D1B0501264B40DB
:1043F00009D44B4003D58B4200D18242FFBD994284
:10440000FCD19042FFBD0B43DB1803431343F5D0AF
:10441000C9434918FFBD0000FF07000000B5FFF7C2
:10442000CFFF804100BDC04600B5FFF7C9FF01D9ED
:10443000002000BD012000BD00B5FFF7B9FF01D984
:10444000002000BD012000BD00B5FFF7B1FF804195
:1044500000BD012040054A00121804D85A00121865
:1044600001D800207047012070470000002100287B
:1044700005D17047C1174840401AFAD0C90713B593
:10448000064B1B6898470CBC441CA2401005120B3D
:104490000349091B09051943114310BD9823002046
:1044A0001F04000010B54C00620D8023D218DB0001
:1044B000D21A5B057E2A10DD9E3A13DACC17090367
:1044C000490819435242D140640001341532202A70
:1044D00005DAD0400843604310BD002010BD0846F7
:1044E000604310BDC80FC018013810BD18B4044B8C
:1044F0005B6AFC46019308BD24DF4D4A00100000B2
:1045000048140020132370B51D78012D19D014DD37
:104510001F48FFF77DFB06001E48FFF779FB1E4C86
:1045200080223100200000F08DFC022D2DD01B4890
:10453000FFF766FB1A4B186070BD1A4B164CA3644C
:10454000F5E7184B144C23606360A360E3602361BC
:104550006361A361E36123626362A362E362236335
:104560006363A363E36323646364A364E364236515
:104570006365A365E36523666366A366E3662367F5
:104580006367A367E367A364D1E7064BA364CEE741
:104590005344000053460000481400204C330000F0
:1045A00098230020A945001007B5604601880A0A33
:1045B0000230DF2AFAD1C9B2820804D302884088C7
:1045C0000004104300E00068014A5050039007BD0A
:1045D000481400200FB403BC0CBCF0B50124E40760
:1045E000634000E0F0B50C0DCF0F661E3605891B49
:1045F000640503D3C943404200D30131640D03D0A5
:10460000661CF60A07D0E41B00207F00791C89078E
:104610008912803C24031D0DDF0F6E1E36059B1B87
:104620006D0503D3DB43524200D301336D0D03D03C
:104630006E1CF60A07D0ED1B00227F007B1C9B0737
:104640009B12803D2D032F1B661B58D4A446202EA1
:1046500046DA20371400BC401D00BD40F240334113
:104660002A4380185941CB0F05D0C943C0430022CB
:1046700064425041514162464D0D28D10D0D07D184
:1046800000281FD0241940414941013A0D0DF9D0AD
:10469000640006D3013000D30131002C01D1400861
:1046A0004000013A0BD4941CE40A04D112051144D1
:1046B000DB071944F0BDD907204B194300E0D907A7
:1046C0000020F0BD0029DDD1002CDBD1F0BD01328E
:1046D000C6074008CD0728434908002EE1D0D9E796
:1046E0003C2E29DA203E40371400BC4000D0012483
:1046F000F24014431A00BB401C43D317ACE7AC464E
:10470000202F08DA20360400B4400D00B540F840F0
:1047100039412843A5E73C2F0CDA203F40360400FE
:10472000B44000D00124F84004430800B1400C43D9
:10473000C117EAE710001900002494E70000F07F99
:10474000F0B50C0D661E3605891BE60A6405640D7E
:1047500002D0651CED0A04D0002001210905803C2F
:104760002403A4461C0D671E3F05DB1BE70A6405F6
:10477000640D02D0651CED0A04D0002201231B0544
:10478000803C24037740644497B484B296B2744367
:10479000070C7E43150C6F4380B26843361802D372
:1047A000012000043F183004350C00197D41844677
:1047B00088B29AB250430C0C62431F0C7C438EB2F9
:1047C0007E43921902D301263604A4191604170C4D
:1047D0003618674101BC81B29AB25143040C62435E
:1047E0001B0C5C4380B25843121802D30120000412
:1047F00024181004130C401863412D185E4100204A
:10480000474106BC88B293B258430C0C6343120C68
:10481000544389B251435B1802D30121090464183F
:1048200019041A0C091862416D18564100204741BD
:1048300018BCF902720D1143F0026A0D1043ED022B
:104840000A0D03D16D1940414941013B124E9B1B9A
:104850007600B3420ED26D0007D3013000267141BD
:104860006646354301D1400840001B05C918E407DE
:104870002144F0BD0BDA013306D1013004D10131FE
:104880004F0D01D04908F2E7E1070020F0BD0136E5
:1048900031050020EBE70000FF030000F0B51C0D20
:1048A000671E3F05DB1BE70A6405640D02D0661C2A
:1048B000F60A04D0002201231B05803C2403D025E6
:1048C0002D060026F6432E661E096E66CE0FF619DB
:1048D000B44649004F0D02D07E1CF60A03D00020DA
:1048E0000021403F3F033E1BB600B444013F7F051B
:1048F000C91B49082E6F013676089C02950D254389
:104900007543ED137543AD1301356D10F603761B3A
:104910000CB4CC02450D2C43A2B2B3B25A43270CBF
:104920007B43350C6F43A4B26C431B1902D30124A3
:1049300024043F191C041D0CA4187D4124196D4149
:10494000009A91B2ACB26143170C7C432B0C5F43CD
:1049500092B25A43A41802D301221204BF182204AF
:10496000230C52187B41019C6C431B19520ED90138
:104970000A434401A01A81B2B2B2514303145A430C
:10498000360C734387B27743D617D21900277E417E
:1049900036049B191704160C7F185E417316ED1828
:1049A000F301002680337541A90F06D16400690A1E
:1049B000E8055B0A184309D22FE0042294448033AF
:1049C0007541A90AA8059B0A184326D340414941CD
:1049D0002404009A019B0D005543641B4343E41AD1
:1049E00095B286B27543170C7E43030C5F4392B2B7
:1049F0005A43B61802D301221204BF183204330CF2
:104A000052197B4152429C41002C02D400220130B9
:104A100051414008CA071043490802B06246D7070F
:104A20009210084BD218084B9A4203D212058918EB
:104A3000C919F0BD0020002A01DC3900F0BD0133A6
:104A40001905F5E7FD030000FE070000002200B590
:104A5000203200F004F8080000BD000000220B1511
:104A60000AD410B5944600F031F81414013400DA79
:104A70000021CB17144C20470020002170476244CE
:104A8000343A0CD40C2A07DA040091409040524288
:104A90002032D440214310BDD843D94310BD203229
:104AA00007D40C469440524220321141D04020435A
:104AB00010BD0800C917203203D4524220321041E1
:104AC00010BD1800190010BD7F4A00100A0DCC0F50
:104AD000531E1B05C91A520503D3C943404200D3D4
:104AE0000131520D03D0531CDB0A07D0121B0020EA
:104AF0006400611C89078912803A1203014BD21AA3
:104B000070470000FF03000051434343C9188C461F
:104B1000110C83B24B4310B4040C614392B280B2C7
:104B2000504362431C041B0C001910BC5941130470
:104B3000120CC01851416144704700004840414088
:104B400048400E4B5B6818470C4B1B6818470C4AD3
:104B5000936F9B0802D2094BDB681847F0B5146EBF
:104B6000556E576F166FFFF7F6FF054A14665566C8
:104B700057671667F0BD014B9B6818474815002022
:104B8000000000D007B548404140484001E0C04621
:104B900007B54200120E03D0FF2A03D1420218D8F3
:104BA000C00DC0054A00120E03D0FF2A03D14A02ED
:104BB0000FD8C90DC9050122414005D4414001D596
:104BC000814207BD884207BD0143491801D0C04357
:104BD000001807BD00B5FFF7DBFF804100BDC046F0
:104BE00000B5FFF7D5FF01D9002000BD012000BDB1
:104BF00000B5FFF7C7FF804100BD491A002807D163
:104C000008467047C10FC90700D54042002817D099
:104C1000F44603B40B4B1B68984706BC81409E3892
:104C20004042803107D20B0607D04900490AC0052F
:104C30001043084360470130F8E7490A8902F5E765
:104C4000704700009823002041000A0E80231B06B5
:104C50007E2A0BDD9E3A0BDAC1174002400818434A
:104C60005242D0404900013148437047002070470C
:104C7000C00FC01801387047C0420DD300B54000C6
:104C80004008002100F012F8002801D4404200BD85
:104C90008020000600BD0000034BDB69FC4618477E
:104CA0001CDFE14D0010000048150020014B5B6A3D
:104CB0001847000048150020054A1047C2179142C6
:104CC000FAD0044BDB6DFC4618475CDFAF4D00109B
:104CD000054C001048150020054A10470029FBD05C
:104CE000044B5B6EFC46184764DF9D4D00100000CE
:104CF000FB4B001048150020034BDB6FFC461847A8
:104D00007CDFF94D0010000048150020132310B57A
:104D100012481C78FEF77CFF0100012C0AD003DD4D
:104D200080220F4800F08EF80E48FEF769FF0E4B08
:104D3000186010BD0A4C5422200000F083F80B4B81
:104D40006365A365E36523666366A366E36623671D
:104D50006367A367E3672362E361E5E75346000007
:104D6000481500204C33000098230020714D00109E
:104D700007B5604601880A0A0230DF2AFAD1C9B2B3
:104D8000820804D3028840880004104300E00068D1
:104D9000014A5050039007BD48150020002230B54D
:104DA000002906D5CD0705434808013A10E0002246
:104DB00030B505000D430FD0CD170C16AC4205D110
:104DC000C901440E2143C0010732F6E7050008007F
:104DD00052423D320149884730BD0000EF290000B2
:104DE0000021C2158032803201D0024A10470020D3
:104DF00070470000CD2A0000C30FDB0741000A0EF8
:104E000007D0FF2A08D00909054A89181943400725
:104E100070471900002070470249C918FAE70000DE
:104E2000000000380000F07F01480421014B1847C2
:104E300050120020213C0010014B1B681847000055
:104E400050120020014B5B681847000050120020F0
:104E50007047C046F8B55746DE464E464546E0B573
:104E600099460A9B07009A460D9B884693460B9CE1
:104E70009B073BD10C9B9C423DD21E1B0B94150003
:104E80000C005E442A004B46013521002020B84723
:104E9000B542F7D1A0460B9C002C20D045463619D0
:104EA0005346321B013C185D29004B46B847002C85
:104EB000F6D12B00350098460D9B9B070FD55B461E
:104EC000EC1A0C9BA3420AD9464698462A004B4648
:104ED000310020200134B84701354445F6D328007D
:104EE000F0BCBB46B246A946A046F8BD1600150068
:104EF000002CD3D1E0E716001500002CCED1EEE750
:104F0000F0B54546DE4657464E46E0B585B09C4670
:104F100010AB1B78149F934698460F9C129E139DCE
:104F2000BB074CD4002D42D1B44248D201233B40B0
:104F300099460E9B013B9A46302304E052460134C9
:104F40001355A64201D9202CF8D14B46002B00D195
:104F500083E00E9B013B99463023A54205D82EE005
:104F60004A4601341355AC4229D0202CF8D1FB0617
:104F70000CD57B0554D4A64263D0A54261D0119BC9
:104F8000102B50D0022B57D0202C32D1202301934C
:104F90000E9B5A460093039763460295FFF75AFF0C
:104FA00005B0F0BCBB46B246A946A046F0BD012301
:104FB0003B40994601233B422AD1B442B9D3FB0678
:104FC0001CD57B05DBD4002CD5D1119B102B5BD0DD
:104FD000119B022B6BD0302301240E9A1370434691
:104FE000002B10D17B073ED52B260E9A631C16553D
:104FF000CDE72300013430260E9AD654202CC5D09C
:105000004346002BEED02D260E9A631C1655BEE7A4
:105010004346002B2FD0013DB44200D289E798E7E8
:10502000119B102BB2D1BB0637D5202CAED0582304
:105030000E9A13550134A7E7202CA7D02300013482
:1050400007E0631E012CC0D0119A102A31D0022A29
:10505000D1D162260E9AD65496E7FB06CED57B05B3
:1050600000D488E78BE723003E0790D520260E9AD0
:10507000013316558BE70C233B405A1E9341ED1A22
:10508000B44200D255E764E7BB060ED478230E9AEB
:105090000224137030235370A1E7202C00D175E750
:1050A00078230E9A135501346EE75823EFE76033E7
:1050B000EDE70E9AA61E91464E44BA0602D5582236
:1050C000327098E77822327095E7C04610B5002814
:1050D00000D110BD01F082FCFBE7C0460B0010B50B
:1050E000002802D049681B68984710BDF0B55746A4
:1050F000DE464E464546E0B595B083460F009246E3
:1051000098461E9A1F9B10001900209EFFF7A1F9D8
:10511000002800D0EAE11E981F990122C54B524297
:10512000FFF77CF9002800D014E11E981F99012296
:10513000C14B5242FFF788F9002800D0E9E01E98E1
:105140001F990022BD4BFFF77FF9002800D0C8E06F
:105150001E981F990022BA4BFFF760F9002800D073
:10516000BFE01E981F9900220023FFF757F900287F
:1051700000D0E4E000230B93229B5B0500D40626BD
:105180000024302307E0172106AA013452181355D2
:10519000013E202C01D0092EF5D81E981F99FFF74B
:1051A00081F9A84BF2009B181A685B680500089209
:1051B0000993FFF75FF902000B001E981F99FFF794
:1051C000BAF8089A099BFFF7E6F806900791FFF7EF
:1051D0008DF98146FFF74AF902000B0006980799FE
:1051E000FFF7A9F80022984B06900791FFF72CF9DA
:1051F000002800D10DE101239C46E1444846FFF719
:1052000035F902000B0008980999FFF70DF90028FD
:1052100002D0002399460135002E00D1D9E0069531
:105220004D46B94614E006AA944617230A21634462
:10523000280001341F19FEF743FE30313970280071
:105240000A21013EFEF73CFE092D00D817E10500BA
:10525000202CE8D14F46069D20240CAE06AA172329
:105260009446634499465B46B34606930FE04B462B
:1052700028000A210134E618FEF7FAFD3031280033
:1052800031700A21FEF7F4FD051E00D1E4E0202C68
:10529000EDD1069B5E469B460323229A1340012BC9
:1052A00018D1219B002B15D00B9B002B00D1FDE0CA
:1052B000219B013B2193202B0CD93023219A07E01D
:1052C000172006A9013409180B55944200D3CCE0ED
:1052D000202CF5D1229B01940393219B00960293ED
:1052E00022E0229B52460493219B390003935846A7
:1052F0001E9B1F9C029600930194434600F04AF9BE
:105300000400200015B0F0BCBB46B246A946A0463A
:10531000F0BD229B5B070FD403224C4B22990192D4
:105320000391219900930291434652463900584611
:10533000FFF790FD0400E4E70422454BEEE71E9AD8
:105340001F9B00200021FEF7F6FF01231E901F91F6
:105350000B9311E7229B54469B0711D1219B042BF1
:105360000ED9219B55469C465E46043C64442A0067
:105370004346013539002020B047A542F7D1B34656
:10538000344D26002B1F99465B46A3461C00320075
:10539000E87843463900013DA04701364D45F6D136
:1053A00023005C469B46229B04349B07A9D55346A9
:1053B000219AE31A9A42A4D95E4615002200434678
:1053C00039002020B04753460134E31A9D42F5D8F6
:1053D00097E72800FFF74EF802000B001E981F9970
:1053E000FEF7A9FF0022184B06900791FFF716F869
:1053F0000CAE002800D031E7069807990022124B26
:10540000FFF722F8002800D028E7012301359D434B
:1054100024E70022069807990B4BFEF7FFFF0028B0
:1054200000D0F9E64B46002B5CD101239C46E144B9
:10543000F2E6C046FFFFEFFFFFFFEF7F65CDCD41F6
:1054400065CDCDC1C09C00100000E03FE099001088
:10545000D8990010E8990010069B5E469B460323EE
:10546000229A1340012B00D181E0202C00D131E79A
:105470000B9B002B27D02D23335501342AE74F46B1
:10548000069D202C00D1E7E63022331907E01720D3
:1054900006A9013409180A55202C00D1DCE6A342E4
:1054A000F5D12E220CAE0134F254D7E60C23229A09
:1054B000134257D0219B013B2193A34200D9FCE624
:1054C000202C00D106E7229B5B0703D52B23335505
:1054D0000134FFE6229B1B0700D4FBE62023335553
:1054E0000134F7E6DB0700D496E69EE7229B55469B
:1054F0009B0711D1219B032B0ED9219B54469C461F
:105500005E46033D654422004346013439002020B5
:10551000B047AC42F7D1B346B9465F461C4EEC1CCF
:105520002A00B078434649460135B847013EAC42AF
:10553000F6D1229BBB464F469B0700D4E1E653467B
:10554000219AE31A9A4200D8DBE65E461500220053
:10555000434639002020B04753460134E31AAB429A
:10556000F5D3CEE6219BA34200D9A6E6B2E6219B65
:10557000002B00D179E70B9B002B97D0219B013B9F
:1055800021939C4200D298E6202C00D073E7A1E63C
:10559000E4990010F0B5DE4657464E464546E0B564
:1055A00099B081468B4692469846229A239B1000DA
:1055B0001900FEF74EFF002800D0CAE02298239978
:1055C0000122824B5242FEF73FFF002800D0C0E08C
:1055D0002298239901227E4B5242FEF71FFF00289A
:1055E00000D0B6E02298239900220023FEF716FF90
:1055F000002800D0C9E1229B239C089309940898B5
:1056000009998023269ADB001A400D928022269C5D
:105610001201144022000B94269C07000E001C422D
:1056200000D0ADE00B00034300D0D5E0002A00D04D
:105630000AE2220006332493022313400C93022330
:10564000134200D002E2259B042B00D20FE2043B60
:105650000B93002304250A93002222982399002308
:10566000FEF7DCFE002800D003E25A4B269A1340D6
:1056700004930B9B0393249B0293089B099C009328
:1056800001945946434652464846FFF72FFD020013
:105690002020269B1F27034059424B415B42184064
:1056A000531C0893594643464530C8470A9AD317B6
:1056B000D4185C40D30F0A936B1E0B9308AB9C4627
:1056C0000025674401E0202D0FD020000A21FEF7BD
:1056D000F7FB01357E193031317020000A21FEF7C9
:1056E000EFFB26000400092EEDD8052306930B9B43
:1056F00059460593002304930A3303930A9B4846B3
:10570000029310AB0093089A43460195FFF7F8FB0C
:105710000C9B002B2DD05346C41A259BA34228D99D
:105720004D465F4681461E00534639001A19202017
:1057300043460134A847A642F6D853464846259921
:10574000C21A01320023914200D386E101301818B9
:105750000FE0269B0493259B0393249B0293229B9B
:10576000239C009301944346524659464846FFF70E
:10577000BDFC19B0F0BCBB46B246A946A046F0BD80
:1057800001432BD10B9B2200002B00D154E70023B7
:105790000A93249B0A9A0024934200DD85E1229813
:1057A000239900220023FEF739FE002800D035E1BE
:1057B000269B084A02941A408023DB00134304937B
:1057C000259B0393089B099CCBE7C046FFFFEF7F17
:1057D000FFFFEFFFFFF7FFFF06232493B44B70009A
:1057E0009C46400D6044FEF745FEB24AB24BFEF7C0
:1057F000D2FDB24AB24BFEF7A7FD3603B14B360BD2
:10580000334304000D00380019000022AE4BFEF7B0
:1058100092FDAE4AAE4BFEF7BEFD02000B0020002B
:105820002900FEF791FDFEF73DFE0A90FEF722FEED
:10583000A84AA94B04000D00FEF7ADFD0022A74BBE
:10584000FEF782FDFEF72EFEA54A0600A54B2000BE
:105850002900FEF7A0FD040030000D000C96FEF7B5
:1058600009FEA14AA14BFEF796FD02000B002000A5
:105870002900FEF760FD02000B0006000F00FEF796
:105880008AFD320004000D003B0030003900FEF7B5
:105890005BFD00220E900F91954B20002900FEF732
:1058A0005CFD0022934BFEF74FFD02000B00200031
:1058B0002900FEF752FD00228F4BFEF745FD020046
:1058C0000B0020002900FEF748FD0D008021040098
:1058D00032003B000020C905FEF72DFD02000B0041
:1058E00020002900FEF730FD02000B000E980F99F2
:1058F000FEF733FD0022734BFEF726FD7F4B0C9C19
:105900009C46644400222305FEF745FD06000F0077
:1059100002000B0008980999FEF780FD00280AD0C4
:105920000A9B3000013B39000A930022714BFEF7BD
:1059300014FD06000F000A9A330063323900C62AAC
:1059400012D802222698042510400B9A0C90002AA7
:1059500025D1259B042B05D9002800D0A1E0259B4B
:10596000043B0B93042541E00222269810400B9A39
:105970000C90002A12D1259B052B76D9002872D1D4
:10598000259B0525053B0B9334E0802212069446A7
:10599000229B0893239B6344099330E605250B4320
:1059A00000D1F6E608980999554A564BFEF744FD92
:1059B000002808D0089809990022534BFEF72EFDC5
:1059C000002800D0E5E6249B002B1CD00D9B002B6B
:1059D00019D0249B013B2493259BAB4204D90C9BFB
:1059E000002B5AD002230C9300230B930A9B002B0D
:1059F00000D131E60898099932003B00FEF7ADFC72
:105A00000890099128E6259BAB42EDD90C9B002B11
:105A100043D000230B9302330C93E7E78020269BAF
:105A20003A4A00061A40802384460294089C099D45
:105A30002900DB0013430493259B61442200039358
:105A40000B00009201938EE60524A8E600230B9339
:105A50000A93023304250C93FEE553468C46013B22
:105A600063441B1A72E602230C930525C2E7042344
:105A7000EDE58020089E099F000639008446269A9D
:105A8000224B6144134004930B9B32000393249BED
:105A900002930B0000920193F3E5259B5B1B0B9394
:105AA000A4E7022304250C93A0E79C1A013C76E6A8
:105AB00001FCFFFFFB799F501344D33FB3C8608BB9
:105AC000288AC63F0000F03F0000F83F61436F6343
:105AD000A787D23F71A379094F930A400000E03FA6
